S01300007465737430322D377365672E737265634C
S113000045C0000060C000005EC000005CC000008D
S11300105AC0000058C0000056C0000054C0000080
S113002052C0000050C000004EC000004CC0000090
S11300304AC0000048C0000046C0000044C00000A0
S113004042C0000040C000003EC000003CC00000B0
S11300503AC0000038C0000036C0000034C00000C0
S113006032C0000030C000002EC000002CC00000D0
S11300702AC0000028C0000026C0000024C00000E0
S113008022C0000020C000001EC0000011241FBEBA
S1130090CFEFD0E1DEBFCDBF11E0A0E0B1E0E4E1FD
S11300A0F2E000E00BBF02C007900D92A031B1074F
S11300B0D9F721E0A0E1B1E001C01D92A531B2075A
S11300C0E1F792D0A5C09CCF28B328B343E050E019
S11300D0481B590B81E090E002C0880F991F4A9594
S11300E0E2F78095822388BB6BBB8FE39CE9019781
S11300F0F1F700C0000008950F931F93CF93DF938F
S11301008C01C0E0D0E007C0F801EC0FFD1F608156
S1130110CE01DADF2196C430D105B4F3DF91CF915B
S11301201F910F9108959C012F703078332334F47C
S113013021503109206F3F6F2F5F3F4FB9019C0160
S1130140992314F4215F3F4F3595279535952795CD
S113015035952795359527952F703078332334F4CA
S113016021503109206F3F6F2F5F3F4FF901AC01E0
S1130170992314F441505F4F252F352F330F330B40
S11301802F703078332334F421503109206F3F6FBE
S11301902F5F3F4FAC01992314F44150504F852FEA
S11301A08595859585958595952F990F990BDB01F7
S11301B0A050BF4F4C91A0E1B1E04C93E050FF4FF1
S11301C0408111964C931197F901E050FF4F208123
S11301D012962C931297FC01E050FF4F80811396E6
S11301E08C931397CD01089587E084BB8FEF8ABB6E
S11301F08FE087BB80E090E0EC01219694DF7CDF08
S11302008FE39CE90197F1F700C00000CE01F4CF21
S1070210F894FFCF8C
S11302143F065B4F666D7D277F67777C585E7971F7
S9030000FC
